{
  "contractName": "GoldMarketplace",
  "abi": [
    {
      "inputs": [],
      "payable": false,
      "stateMutability": "nonpayable",
      "type": "constructor"
    },
    {
      "anonymous": false,
      "inputs": [
        {
          "indexed": false,
          "internalType": "uint256",
          "name": "id",
          "type": "uint256"
        },
        {
          "indexed": false,
          "internalType": "string",
          "name": "name",
          "type": "string"
        },
        {
          "indexed": false,
          "internalType": "uint256",
          "name": "price",
          "type": "uint256"
        },
        {
          "indexed": false,
          "internalType": "address payable",
          "name": "owner",
          "type": "address"
        },
        {
          "indexed": false,
          "internalType": "bool",
          "name": "purchased",
          "type": "bool"
        },
        {
          "indexed": false,
          "internalType": "string",
          "name": "color",
          "type": "string"
        },
        {
          "indexed": false,
          "internalType": "uint256",
          "name": "karat",
          "type": "uint256"
        },
        {
          "indexed": false,
          "internalType": "uint256",
          "name": "purity",
          "type": "uint256"
        },
        {
          "indexed": false,
          "internalType": "uint256",
          "name": "tola",
          "type": "uint256"
        }
      ],
      "name": "GoldCreated",
      "type": "event"
    },
    {
      "anonymous": false,
      "inputs": [
        {
          "indexed": false,
          "internalType": "uint256",
          "name": "id",
          "type": "uint256"
        },
        {
          "indexed": false,
          "internalType": "string",
          "name": "name",
          "type": "string"
        },
        {
          "indexed": false,
          "internalType": "uint256",
          "name": "price",
          "type": "uint256"
        },
        {
          "indexed": false,
          "internalType": "address payable",
          "name": "owner",
          "type": "address"
        },
        {
          "indexed": false,
          "internalType": "bool",
          "name": "purchased",
          "type": "bool"
        },
        {
          "indexed": false,
          "internalType": "string",
          "name": "color",
          "type": "string"
        },
        {
          "indexed": false,
          "internalType": "uint256",
          "name": "karat",
          "type": "uint256"
        },
        {
          "indexed": false,
          "internalType": "uint256",
          "name": "purity",
          "type": "uint256"
        },
        {
          "indexed": false,
          "internalType": "uint256",
          "name": "tola",
          "type": "uint256"
        }
      ],
      "name": "GoldPurchased",
      "type": "event"
    },
    {
      "constant": true,
      "inputs": [],
      "name": "GoldCount",
      "outputs": [
        {
          "internalType": "uint256",
          "name": "",
          "type": "uint256"
        }
      ],
      "payable": false,
      "stateMutability": "view",
      "type": "function"
    },
    {
      "constant": true,
      "inputs": [
        {
          "internalType": "uint256",
          "name": "",
          "type": "uint256"
        }
      ],
      "name": "Golds",
      "outputs": [
        {
          "internalType": "uint256",
          "name": "id",
          "type": "uint256"
        },
        {
          "internalType": "string",
          "name": "name",
          "type": "string"
        },
        {
          "internalType": "uint256",
          "name": "price",
          "type": "uint256"
        },
        {
          "internalType": "address payable",
          "name": "owner",
          "type": "address"
        },
        {
          "internalType": "bool",
          "name": "purchased",
          "type": "bool"
        },
        {
          "internalType": "string",
          "name": "color",
          "type": "string"
        },
        {
          "internalType": "uint256",
          "name": "karat",
          "type": "uint256"
        },
        {
          "internalType": "uint256",
          "name": "purity",
          "type": "uint256"
        },
        {
          "internalType": "uint256",
          "name": "tola",
          "type": "uint256"
        }
      ],
      "payable": false,
      "stateMutability": "view",
      "type": "function"
    },
    {
      "constant": true,
      "inputs": [],
      "name": "color",
      "outputs": [
        {
          "internalType": "string",
          "name": "",
          "type": "string"
        }
      ],
      "payable": false,
      "stateMutability": "view",
      "type": "function"
    },
    {
      "constant": true,
      "inputs": [],
      "name": "karat",
      "outputs": [
        {
          "internalType": "uint256",
          "name": "",
          "type": "uint256"
        }
      ],
      "payable": false,
      "stateMutability": "view",
      "type": "function"
    },
    {
      "constant": true,
      "inputs": [],
      "name": "name",
      "outputs": [
        {
          "internalType": "string",
          "name": "",
          "type": "string"
        }
      ],
      "payable": false,
      "stateMutability": "view",
      "type": "function"
    },
    {
      "constant": true,
      "inputs": [],
      "name": "purity",
      "outputs": [
        {
          "internalType": "uint256",
          "name": "",
          "type": "uint256"
        }
      ],
      "payable": false,
      "stateMutability": "view",
      "type": "function"
    },
    {
      "constant": true,
      "inputs": [],
      "name": "tola",
      "outputs": [
        {
          "internalType": "uint256",
          "name": "",
          "type": "uint256"
        }
      ],
      "payable": false,
      "stateMutability": "view",
      "type": "function"
    },
    {
      "constant": false,
      "inputs": [
        {
          "internalType": "string",
          "name": "_name",
          "type": "string"
        },
        {
          "internalType": "uint256",
          "name": "_price",
          "type": "uint256"
        },
        {
          "internalType": "string",
          "name": "_color",
          "type": "string"
        },
        {
          "internalType": "uint256",
          "name": "_karat",
          "type": "uint256"
        },
        {
          "internalType": "uint256",
          "name": "_purity",
          "type": "uint256"
        },
        {
          "internalType": "uint256",
          "name": "_tola",
          "type": "uint256"
        }
      ],
      "name": "createGold",
      "outputs": [],
      "payable": false,
      "stateMutability": "nonpayable",
      "type": "function"
    },
    {
      "constant": false,
      "inputs": [
        {
          "internalType": "uint256",
          "name": "_id",
          "type": "uint256"
        }
      ],
      "name": "purchaseGold",
      "outputs": [],
      "payable": true,
      "stateMutability": "payable",
      "type": "function"
    },
    {
      "constant": true,
      "inputs": [
        {
          "internalType": "uint256",
          "name": "_id",
          "type": "uint256"
        }
      ],
      "name": "GoldDetails",
      "outputs": [
        {
          "internalType": "string",
          "name": "",
          "type": "string"
        },
        {
          "internalType": "uint256",
          "name": "",
          "type": "uint256"
        },
        {
          "internalType": "address",
          "name": "",
          "type": "address"
        },
        {
          "internalType": "string",
          "name": "",
          "type": "string"
        },
        {
          "internalType": "uint256",
          "name": "",
          "type": "uint256"
        },
        {
          "internalType": "uint256",
          "name": "",
          "type": "uint256"
        },
        {
          "internalType": "uint256",
          "name": "",
          "type": "uint256"
        }
      ],
      "payable": false,
      "stateMutability": "view",
      "type": "function"
    }
  ],
  "bytecode": "0x608060405260006001553480156200001657600080fd5b506040518060400160405280600481526020017f476f6c640000000000000000000000000000000000000000000000000000000081525060009080519060200190620000649291906200006b565b506200011a565b828054600181600116156101000203166002900490600052602060002090601f016020900481019282601f10620000ae57805160ff1916838001178555620000df565b82800160010185558215620000df579182015b82811115620000de578251825591602001919060010190620000c1565b5b509050620000ee9190620000f2565b5090565b6200011791905b8082111562000113576000816000905550600101620000f9565b5090565b90565b61166e806200012a6000396000f3fe6080604052600436106100915760003560e01c8063ab12f94311610059578063ab12f94314610484578063c881213d146105f3578063cf08fed51461061e578063d92c4018146106ae578063f6ad4fc8146106d957610091565b806302a8032e1461009657806306fdde03146102175780631c1800f4146102a75780634fe1a618146102d2578063a2df7be414610459575b600080fd5b3480156100a257600080fd5b506100cf600480360360208110156100b957600080fd5b8101908080359060200190929190505050610707565b604051808a8152602001806020018981526020018873ffffffffffffffffffffffffffffffffffffffff1673ffffffffffffffffffffffffffffffffffffffff168152602001871515151581526020018060200186815260200185815260200184815260200183810383528b818151815260200191508051906020019080838360005b8381101561016d578082015181840152602081019050610152565b50505050905090810190601f16801561019a5780820380516001836020036101000a031916815260200191505b50838103825287818151815260200191508051906020019080838360005b838110156101d35780820151818401526020810190506101b8565b50505050905090810190601f1680156102005780820380516001836020036101000a031916815260200191505b509b50505050505050505050505060405180910390f35b34801561022357600080fd5b5061022c6108b2565b6040518080602001828103825283818151815260200191508051906020019080838360005b8381101561026c578082015181840152602081019050610251565b50505050905090810190601f1680156102995780820380516001836020036101000a031916815260200191505b509250505060405180910390f35b3480156102b357600080fd5b506102bc610950565b6040518082815260200191505060405180910390f35b3480156102de57600080fd5b50610457600480360360c08110156102f557600080fd5b810190808035906020019064010000000081111561031257600080fd5b82018360208201111561032457600080fd5b8035906020019184600183028401116401000000008311171561034657600080fd5b91908080601f016020809104026020016040519081016040528093929190818152602001838380828437600081840152601f19601f82011690508083019250505050505050919291929080359060200190929190803590602001906401000000008111156103b357600080fd5b8201836020820111156103c557600080fd5b803590602001918460018302840111640100000000831117156103e757600080fd5b91908080601f016020809104026020016040519081016040528093929190818152602001838380828437600081840152601f19601f820116905080830192505050505050509192919290803590602001909291908035906020019092919080359060200190929190505050610956565b005b34801561046557600080fd5b5061046e610c7b565b6040518082815260200191505060405180910390f35b34801561049057600080fd5b506104bd600480360360208110156104a757600080fd5b8101908080359060200190929190505050610c81565b60405180806020018881526020018773ffffffffffffffffffffffffffffffffffffffff1673ffffffffffffffffffffffffffffffffffffffff1681526020018060200186815260200185815260200184815260200183810383528a818151815260200191508051906020019080838360005b8381101561054b578082015181840152602081019050610530565b50505050905090810190601f1680156105785780820380516001836020036101000a031916815260200191505b50838103825287818151815260200191508051906020019080838360005b838110156105b1578082015181840152602081019050610596565b50505050905090810190601f1680156105de5780820380516001836020036101000a031916815260200191505b50995050505050505050505060405180910390f35b3480156105ff57600080fd5b50610608610ee4565b6040518082815260200191505060405180910390f35b34801561062a57600080fd5b50610633610eea565b6040518080602001828103825283818151815260200191508051906020019080838360005b83811015610673578082015181840152602081019050610658565b50505050905090810190601f1680156106a05780820380516001836020036101000a031916815260200191505b509250505060405180910390f35b3480156106ba57600080fd5b506106c3610f88565b6040518082815260200191505060405180910390f35b610705600480360360208110156106ef57600080fd5b8101908080359060200190929190505050610f8e565b005b6002602052806000526040600020600091509050806000015490806001018054600181600116156101000203166002900480601f0160208091040260200160405190810160405280929190818152602001828054600181600116156101000203166002900480156107b95780601f1061078e576101008083540402835291602001916107b9565b820191906000526020600020905b81548152906001019060200180831161079c57829003601f168201915b5050505050908060020154908060030160009054906101000a900473ffffffffffffffffffffffffffffffffffffffff16908060030160149054906101000a900460ff1690806004018054600181600116156101000203166002900480601f0160208091040260200160405190810160405280929190818152602001828054600181600116156101000203166002900480156108965780601f1061086b57610100808354040283529160200191610896565b820191906000526020600020905b81548152906001019060200180831161087957829003601f168201915b5050505050908060050154908060060154908060070154905089565b60008054600181600116156101000203166002900480601f0160208091040260200160405190810160405280929190818152602001828054600181600116156101000203166002900480156109485780601f1061091d57610100808354040283529160200191610948565b820191906000526020600020905b81548152906001019060200180831161092b57829003601f168201915b505050505081565b60015481565b600086511161096457600080fd5b6000851161097157600080fd5b600084511161097f57600080fd5b6000831161098c57600080fd5b6000811161099957600080fd5b600082116109a657600080fd5b60016000815480929190600101919050555060405180610120016040528060015481526020018781526020018681526020013373ffffffffffffffffffffffffffffffffffffffff16815260200160001515815260200185815260200184815260200183815260200182815250600260006001548152602001908152602001600020600082015181600001556020820151816001019080519060200190610a4e929190611530565b506040820151816002015560608201518160030160006101000a81548173ffffffffffffffffffffffffffffffffffffffff021916908373ffffffffffffffffffffffffffffffffffffffff16021790555060808201518160030160146101000a81548160ff02191690831515021790555060a0820151816004019080519060200190610adc929190611530565b5060c0820151816005015560e0820151816006015561010082015181600701559050507f31434cd6173d3591da352e2d23ab4680205dc04cae992fa9f510a748dbb68edb600154878733600089898989604051808a8152602001806020018981526020018873ffffffffffffffffffffffffffffffffffffffff1673ffffffffffffffffffffffffffffffffffffffff168152602001871515151581526020018060200186815260200185815260200184815260200183810383528b818151815260200191508051906020019080838360005b83811015610bca578082015181840152602081019050610baf565b50505050905090810190601f168015610bf75780820380516001836020036101000a031916815260200191505b50838103825287818151815260200191508051906020019080838360005b83811015610c30578082015181840152602081019050610c15565b50505050905090810190601f168015610c5d5780820380516001836020036101000a031916815260200191505b509b50505050505050505050505060405180910390a1505050505050565b60055481565b606060008060606000806000610c956115b0565b600260008a81526020019081526020016000206040518061012001604052908160008201548152602001600182018054600181600116156101000203166002900480601f016020809104026020016040519081016040528092919081815260200182805460018160011615610100020316600290048015610d575780601f10610d2c57610100808354040283529160200191610d57565b820191906000526020600020905b815481529060010190602001808311610d3a57829003601f168201915b50505050508152602001600282015481526020016003820160009054906101000a900473ffffffffffffffffffffffffffffffffffffffff1673ffffffffffffffffffffffffffffffffffffffff1673ffffffffffffffffffffffffffffffffffffffff1681526020016003820160149054906101000a900460ff16151515158152602001600482018054600181600116156101000203166002900480601f016020809104026020016040519081016040528092919081815260200182805460018160011615610100020316600290048015610e745780601f10610e4957610100808354040283529160200191610e74565b820191906000526020600020905b815481529060010190602001808311610e5757829003601f168201915b50505050508152602001600582015481526020016006820154815260200160078201548152505090508060200151816040015182606001518360a001518460c001518560e00151866101000151869650849450839350975097509750975097509750975050919395979092949650565b60045481565b60038054600181600116156101000203166002900480601f016020809104026020016040519081016040528092919081815260200182805460018160011615610100020316600290048015610f805780601f10610f5557610100808354040283529160200191610f80565b820191906000526020600020905b815481529060010190602001808311610f6357829003601f168201915b505050505081565b60065481565b610f966115b0565b600260008381526020019081526020016000206040518061012001604052908160008201548152602001600182018054600181600116156101000203166002900480601f0160208091040260200160405190810160405280929190818152602001828054600181600116156101000203166002900480156110585780601f1061102d57610100808354040283529160200191611058565b820191906000526020600020905b81548152906001019060200180831161103b57829003601f168201915b50505050508152602001600282015481526020016003820160009054906101000a900473ffffffffffffffffffffffffffffffffffffffff1673ffffffffffffffffffffffffffffffffffffffff1673ffffffffffffffffffffffffffffffffffffffff1681526020016003820160149054906101000a900460ff16151515158152602001600482018054600181600116156101000203166002900480601f0160208091040260200160405190810160405280929190818152602001828054600181600116156101000203166002900480156111755780601f1061114a57610100808354040283529160200191611175565b820191906000526020600020905b81548152906001019060200180831161115857829003601f168201915b5050505050815260200160058201548152602001600682015481526020016007820154815250509050600081606001519050600082600001511180156111c15750600154826000015111155b6111ca57600080fd5b81604001513410156111db57600080fd5b8160800151156111ea57600080fd5b3373ffffffffffffffffffffffffffffffffffffffff168173ffffffffffffffffffffffffffffffffffffffff16141561122357600080fd5b33826060019073ffffffffffffffffffffffffffffffffffffffff16908173ffffffffffffffffffffffffffffffffffffffff1681525050600182608001901515908115158152505081600260008581526020019081526020016000206000820151816000015560208201518160010190805190602001906112a6929190611530565b506040820151816002015560608201518160030160006101000a81548173ffffffffffffffffffffffffffffffffffffffff021916908373ffffffffffffffffffffffffffffffffffffffff16021790555060808201518160030160146101000a81548160ff02191690831515021790555060a0820151816004019080519060200190611334929190611530565b5060c0820151816005015560e0820151816006015561010082015181600701559050508073ffffffffffffffffffffffffffffffffffffffff166108fc349081150290604051600060405180830381858888f1935050505015801561139d573d6000803e3d6000fd5b507f0660738721caf87523b1e7523e69f36f74d24a6c1d3b53dfacb3702499166ea5600154836020015184604001513360018760a001518860c001518960e001518a6101000151604051808a8152602001806020018981526020018873ffffffffffffffffffffffffffffffffffffffff1673ffffffffffffffffffffffffffffffffffffffff168152602001871515151581526020018060200186815260200185815260200184815260200183810383528b818151815260200191508051906020019080838360005b83811015611482578082015181840152602081019050611467565b50505050905090810190601f1680156114af5780820380516001836020036101000a031916815260200191505b50838103825287818151815260200191508051906020019080838360005b838110156114e85780820151818401526020810190506114cd565b50505050905090810190601f1680156115155780820380516001836020036101000a031916815260200191505b509b50505050505050505050505060405180910390a1505050565b828054600181600116156101000203166002900490600052602060002090601f016020900481019282601f1061157157805160ff191683800117855561159f565b8280016001018555821561159f579182015b8281111561159e578251825591602001919060010190611583565b5b5090506115ac9190611614565b5090565b604051806101200160405280600081526020016060815260200160008152602001600073ffffffffffffffffffffffffffffffffffffffff168152602001600015158152602001606081526020016000815260200160008152602001600081525090565b61163691905b8082111561163257600081600090555060010161161a565b5090565b9056fea265627a7a72315820a19135f914e48e8db1b677c17b6ea1aac9485a2c9118a96ca5c44f558f6b123a64736f6c63430005100032",
  "source": "pragma solidity ^0.5.0;\r\n\r\ncontract GoldMarketplace {\r\n    string public name;\r\n    uint public GoldCount = 0;\r\n    mapping(uint => Gold) public Golds;\r\n    string public color;\r\n    uint public karat;\r\n    uint public purity;\r\n    uint public tola;\r\n    \r\n\r\n    struct Gold {\r\n        uint id;\r\n        string name;\r\n        uint price;\r\n        address payable owner;\r\n        bool purchased;\r\n        string color;\r\n        uint karat;\r\n        uint purity;\r\n        uint tola;\r\n    }\r\n    \r\n    \r\n\r\n    event GoldCreated(\r\n        uint id,\r\n        string name,\r\n        uint price,\r\n        address payable owner,\r\n        bool purchased,\r\n        string color,\r\n        uint karat,\r\n        uint purity,\r\n        uint tola\r\n    );\r\n\r\n    event GoldPurchased(\r\n        uint id,\r\n        string name,\r\n        uint price,\r\n        address payable owner,\r\n        bool purchased,\r\n        string color,\r\n        uint karat,\r\n        uint purity,\r\n        uint tola\r\n    );\r\n\r\n    constructor() public {\r\n        name = \"Gold\";\r\n    }\r\n\r\n    \r\n    \r\n    function createGold(string memory _name, uint _price , string memory _color, uint _karat, uint _purity, uint _tola ) public {\r\n        // Require a valid name\r\n        require(bytes(_name).length > 0);\r\n        // Require a valid price\r\n        require(_price > 0);\r\n        require(bytes(_color).length > 0);\r\n        require(_karat >0);\r\n        require(_tola >0);\r\n        require(_purity >0);\r\n        // Increment product count\r\n        GoldCount ++;\r\n        // Create the product\r\n        Golds[GoldCount] = Gold(GoldCount, _name, _price, msg.sender, false,_color,_karat,_purity,_tola);\r\n        // Trigger an event\r\n        emit GoldCreated(GoldCount, _name, _price, msg.sender, false,_color,_karat,_purity,_tola);\r\n    }\r\n\r\n    function purchaseGold(uint _id) public payable {\r\n        // Fetch the product\r\n        Gold memory _Gold = Golds[_id];\r\n        // Fetch the owner\r\n        address payable _seller = _Gold.owner;\r\n        // Make sure the product has a valid id\r\n        require(_Gold.id > 0 && _Gold.id <= GoldCount);\r\n        // Require that there is enough Ether in the transaction\r\n        require(msg.value >= _Gold.price);\r\n        // Require that the product has not been purchased already\r\n        require(!_Gold.purchased);\r\n        // Require that the buyer is not the seller\r\n        require(_seller != msg.sender);\r\n        // Transfer ownership to the buyer\r\n        _Gold.owner = msg.sender;\r\n        // Mark as purchased\r\n        _Gold.purchased = true;\r\n        // Update the product\r\n        Golds[_id] = _Gold;\r\n        // Pay the seller by sending them Ether\r\n        address(_seller).transfer(msg.value);\r\n        // Trigger an event\r\n        emit GoldPurchased(GoldCount, _Gold.name, _Gold.price, msg.sender, true,_Gold.color,_Gold.karat,_Gold.purity,_Gold.tola);\r\n    }\r\n    \r\n    function GoldDetails(uint _id) public view returns(string memory, uint,address, string memory, uint,uint,uint) {\r\n        Gold memory _Gold = Golds[_id];\r\n        return (_Gold.name, _Gold.price, _Gold.owner,_Gold.color,_Gold.karat,_Gold.purity,_Gold.tola);\r\n    }\r\n}",
  "sourcePath": "D:/BE/BE Sem 7/Blockchain Technology/marketplace-master/src/contracts/Gold.sol",
  "compiler": {
    "name": "solc",
    "version": "0.5.16+commit.9c3226ce.Emscripten.clang"
  },
  "schemaVersion": "3.2.4",
  "updatedAt": "2021-01-05T07:32:39.054Z",
  "networkType": "ethereum",
  "devdoc": {
    "methods": {}
  },
  "userdoc": {
    "methods": {}
  }
}